:1000000009C049C018C017C016C015C014C013C01D
:1000100012C011C011241FBECFE9CDBF10E0A0E671
:10002000B0E0ECEAF1E002C005900D92A637B1070E
:10003000D9F772D0B9C0E4CFF894B99AC19808B290
:1000400093E0262F2A95F1F780FB01F89695879586
:1000500008BAB9F7B9988AB780648ABF0895B99881
:10006000282F80E8B199FECFF8942150F1F7262F80
:10007000B19908948795C8F72A95F1F70895CF9319
:10008000DF93EC018991882319F061E5D5DFFACF80
:10009000DF91CF9108951F920F920FB60F92112406
:1000A0002F933F934F935F936F937F938F939F9380
:1000B000AF93BF93CF93EF93FF9362E588E7CFDFD2
:1000C000C82F80E690E0DBDF61E58C2FB5DF82E7AB
:1000D00090E0D5DFC23359F020F4C13359F4C49A0B
:1000E00009C0C33331F0C43329F4C39803C0C498A2
:1000F00001C0C39AFF91EF91CF91BF91AF919F91B2
:100100008F917F916F915F914F913F912F910F90C0
:100110000FBE0F901F901895CF93DF93CDB7DD27BB
:10012000CC50CDBFBB9AC398BC9AC498BA98C29A17
:10013000B898C09A85B7826085BF85B78E7F85BF26
:1001400080E48BBF789491E081E01CE026B322FB31
:10015000FF24F0F822FD05C0813019F4C39AC49839
:1001600001C080E026B3022F017020FD06C091304F
:1001700021F4C49AC39882E006C0811103C0902F75
:100180008F2DE4CF81E0E9E6F0E0DE011196912FBA
:1001900001900D929A95E1F7805D8987F894CE01E0
:0C01A00001966DDF7894EBCFF894FFCF50
:1001AC0053657269616C3A2000427574746F6E3AD3
:0601BC0020200D0A0000E6
:00000001FF
